{
  "_format": "hh-sol-artifact-1",
  "contractName": "AdvancedCollectible",
  "sourceName": "contracts/AdvancedCollectible.sol",
  "abi": [
    {
      "inputs": [
        {
          "internalType": "address",
          "name": "_VRFCoordinator",
          "type": "address"
        },
        {
          "internalType": "address",
          "name": "_LinkToken",
          "type": "address"
        },
        {
          "internalType": "bytes32",
          "name": "_keyhash",
          "type": "bytes32"
        },
        {
          "internalType": "uint256",
          "name": "_fee",
          "type": "uint256"
        }
      ],
      "stateMutability": "nonpayable",
      "type": "constructor"
    },
    {
      "anonymous": false,
      "inputs": [
        {
          "indexed": true,
          "internalType": "address",
          "name": "owner",
          "type": "address"
        },
        {
          "indexed": true,
          "internalType": "address",
          "name": "approved",
          "type": "address"
        },
        {
          "indexed": true,
          "internalType": "uint256",
          "name": "tokenId",
          "type": "uint256"
        }
      ],
      "name": "Approval",
      "type": "event"
    },
    {
      "anonymous": false,
      "inputs": [
        {
          "indexed": true,
          "internalType": "address",
          "name": "owner",
          "type": "address"
        },
        {
          "indexed": true,
          "internalType": "address",
          "name": "operator",
          "type": "address"
        },
        {
          "indexed": false,
          "internalType": "bool",
          "name": "approved",
          "type": "bool"
        }
      ],
      "name": "ApprovalForAll",
      "type": "event"
    },
    {
      "anonymous": false,
      "inputs": [
        {
          "indexed": true,
          "internalType": "address",
          "name": "from",
          "type": "address"
        },
        {
          "indexed": true,
          "internalType": "address",
          "name": "to",
          "type": "address"
        },
        {
          "indexed": true,
          "internalType": "uint256",
          "name": "tokenId",
          "type": "uint256"
        }
      ],
      "name": "Transfer",
      "type": "event"
    },
    {
      "anonymous": false,
      "inputs": [
        {
          "indexed": true,
          "internalType": "bytes32",
          "name": "requestId",
          "type": "bytes32"
        },
        {
          "indexed": false,
          "internalType": "uint256",
          "name": "tokenId",
          "type": "uint256"
        },
        {
          "indexed": false,
          "internalType": "enum AdvancedCollectible.Breed",
          "name": "breed",
          "type": "uint8"
        }
      ],
      "name": "mintCollectible",
      "type": "event"
    },
    {
      "anonymous": false,
      "inputs": [
        {
          "indexed": true,
          "internalType": "address",
          "name": "minter",
          "type": "address"
        },
        {
          "indexed": true,
          "internalType": "bytes32",
          "name": "requestId",
          "type": "bytes32"
        }
      ],
      "name": "requestedCollectible",
      "type": "event"
    },
    {
      "inputs": [
        {
          "internalType": "string",
          "name": "tokenURI",
          "type": "string"
        }
      ],
      "name": "CreateDoggies",
      "outputs": [
        {
          "internalType": "bytes32",
          "name": "",
          "type": "bytes32"
        }
      ],
      "stateMutability": "nonpayable",
      "type": "function"
    },
    {
      "inputs": [
        {
          "internalType": "address",
          "name": "to",
          "type": "address"
        },
        {
          "internalType": "uint256",
          "name": "tokenId",
          "type": "uint256"
        }
      ],
      "name": "approve",
      "outputs": [],
      "stateMutability": "nonpayable",
      "type": "function"
    },
    {
      "inputs": [
        {
          "internalType": "address",
          "name": "owner",
          "type": "address"
        }
      ],
      "name": "balanceOf",
      "outputs": [
        {
          "internalType": "uint256",
          "name": "",
          "type": "uint256"
        }
      ],
      "stateMutability": "view",
      "type": "function"
    },
    {
      "inputs": [],
      "name": "fee",
      "outputs": [
        {
          "internalType": "uint256",
          "name": "",
          "type": "uint256"
        }
      ],
      "stateMutability": "view",
      "type": "function"
    },
    {
      "inputs": [
        {
          "internalType": "uint256",
          "name": "tokenId",
          "type": "uint256"
        }
      ],
      "name": "getApproved",
      "outputs": [
        {
          "internalType": "address",
          "name": "",
          "type": "address"
        }
      ],
      "stateMutability": "view",
      "type": "function"
    },
    {
      "inputs": [
        {
          "internalType": "address",
          "name": "owner",
          "type": "address"
        },
        {
          "internalType": "address",
          "name": "operator",
          "type": "address"
        }
      ],
      "name": "isApprovedForAll",
      "outputs": [
        {
          "internalType": "bool",
          "name": "",
          "type": "bool"
        }
      ],
      "stateMutability": "view",
      "type": "function"
    },
    {
      "inputs": [],
      "name": "name",
      "outputs": [
        {
          "internalType": "string",
          "name": "",
          "type": "string"
        }
      ],
      "stateMutability": "view",
      "type": "function"
    },
    {
      "inputs": [
        {
          "internalType": "uint256",
          "name": "tokenId",
          "type": "uint256"
        }
      ],
      "name": "ownerOf",
      "outputs": [
        {
          "internalType": "address",
          "name": "",
          "type": "address"
        }
      ],
      "stateMutability": "view",
      "type": "function"
    },
    {
      "inputs": [
        {
          "internalType": "bytes32",
          "name": "requestId",
          "type": "bytes32"
        },
        {
          "internalType": "uint256",
          "name": "randomness",
          "type": "uint256"
        }
      ],
      "name": "rawFulfillRandomness",
      "outputs": [],
      "stateMutability": "nonpayable",
      "type": "function"
    },
    {
      "inputs": [
        {
          "internalType": "bytes32",
          "name": "",
          "type": "bytes32"
        }
      ],
      "name": "requestIdToSender",
      "outputs": [
        {
          "internalType": "address",
          "name": "",
          "type": "address"
        }
      ],
      "stateMutability": "view",
      "type": "function"
    },
    {
      "inputs": [
        {
          "internalType": "bytes32",
          "name": "",
          "type": "bytes32"
        }
      ],
      "name": "requestIdToTokenId",
      "outputs": [
        {
          "internalType": "uint256",
          "name": "",
          "type": "uint256"
        }
      ],
      "stateMutability": "view",
      "type": "function"
    },
    {
      "inputs": [
        {
          "internalType": "bytes32",
          "name": "",
          "type": "bytes32"
        }
      ],
      "name": "requestIdToTokenURI",
      "outputs": [
        {
          "internalType": "string",
          "name": "",
          "type": "string"
        }
      ],
      "stateMutability": "view",
      "type": "function"
    },
    {
      "inputs": [
        {
          "internalType": "address",
          "name": "from",
          "type": "address"
        },
        {
          "internalType": "address",
          "name": "to",
          "type": "address"
        },
        {
          "internalType": "uint256",
          "name": "tokenId",
          "type": "uint256"
        }
      ],
      "name": "safeTransferFrom",
      "outputs": [],
      "stateMutability": "nonpayable",
      "type": "function"
    },
    {
      "inputs": [
        {
          "internalType": "address",
          "name": "from",
          "type": "address"
        },
        {
          "internalType": "address",
          "name": "to",
          "type": "address"
        },
        {
          "internalType": "uint256",
          "name": "tokenId",
          "type": "uint256"
        },
        {
          "internalType": "bytes",
          "name": "_data",
          "type": "bytes"
        }
      ],
      "name": "safeTransferFrom",
      "outputs": [],
      "stateMutability": "nonpayable",
      "type": "function"
    },
    {
      "inputs": [
        {
          "internalType": "address",
          "name": "operator",
          "type": "address"
        },
        {
          "internalType": "bool",
          "name": "approved",
          "type": "bool"
        }
      ],
      "name": "setApprovalForAll",
      "outputs": [],
      "stateMutability": "nonpayable",
      "type": "function"
    },
    {
      "inputs": [
        {
          "internalType": "uint256",
          "name": "tokenId_",
          "type": "uint256"
        },
        {
          "internalType": "string",
          "name": "tokenURI_",
          "type": "string"
        }
      ],
      "name": "setTokenURI",
      "outputs": [],
      "stateMutability": "nonpayable",
      "type": "function"
    },
    {
      "inputs": [
        {
          "internalType": "bytes4",
          "name": "interfaceId",
          "type": "bytes4"
        }
      ],
      "name": "supportsInterface",
      "outputs": [
        {
          "internalType": "bool",
          "name": "",
          "type": "bool"
        }
      ],
      "stateMutability": "view",
      "type": "function"
    },
    {
      "inputs": [],
      "name": "symbol",
      "outputs": [
        {
          "internalType": "string",
          "name": "",
          "type": "string"
        }
      ],
      "stateMutability": "view",
      "type": "function"
    },
    {
      "inputs": [],
      "name": "tokenCounter",
      "outputs": [
        {
          "internalType": "uint256",
          "name": "",
          "type": "uint256"
        }
      ],
      "stateMutability": "view",
      "type": "function"
    },
    {
      "inputs": [
        {
          "internalType": "uint256",
          "name": "",
          "type": "uint256"
        }
      ],
      "name": "tokenIdToBreed",
      "outputs": [
        {
          "internalType": "enum AdvancedCollectible.Breed",
          "name": "",
          "type": "uint8"
        }
      ],
      "stateMutability": "view",
      "type": "function"
    },
    {
      "inputs": [
        {
          "internalType": "uint256",
          "name": "tokenId",
          "type": "uint256"
        }
      ],
      "name": "tokenURI",
      "outputs": [
        {
          "internalType": "string",
          "name": "",
          "type": "string"
        }
      ],
      "stateMutability": "view",
      "type": "function"
    },
    {
      "inputs": [
        {
          "internalType": "address",
          "name": "from",
          "type": "address"
        },
        {
          "internalType": "address",
          "name": "to",
          "type": "address"
        },
        {
          "internalType": "uint256",
          "name": "tokenId",
          "type": "uint256"
        }
      ],
      "name": "transferFrom",
      "outputs": [],
      "stateMutability": "nonpayable",
      "type": "function"
    }
  ],
  "bytecode": "0x60c06040523480156200001157600080fd5b50604051620023413803806200234183398101604081905262000034916200017f565b6040805180820182526007815266446f676769657360c81b602080830191825283518085019094526003845262444f4760e81b908401526001600160a01b0380881660a052861660805281519192916200009191600191620000bc565b508051620000a7906002906020840190620000bc565b505050600991909155600a5550620002049050565b828054620000ca90620001c7565b90600052602060002090601f016020900481019282620000ee576000855562000139565b82601f106200010957805160ff191683800117855562000139565b8280016001018555821562000139579182015b82811115620001395782518255916020019190600101906200011c565b50620001479291506200014b565b5090565b5b808211156200014757600081556001016200014c565b80516001600160a01b03811681146200017a57600080fd5b919050565b600080600080608085870312156200019657600080fd5b620001a18562000162565b9350620001b16020860162000162565b6040860151606090960151949790965092505050565b600181811c90821680620001dc57607f821691505b60208210811415620001fe57634e487b7160e01b600052602260045260246000fd5b50919050565b60805160a05161211062000231600039600081816109c20152611501015260006114d201526121106000f3fe608060405234801561001057600080fd5b50600436106101825760003560e01c806370a08231116100d8578063c87b56dd1161008c578063ddca3f4311610066578063ddca3f431461035a578063e985e9c514610363578063ed4046ac1461039f57600080fd5b8063c87b56dd1461030e578063cbbc3c2814610321578063d082e3811461035157600080fd5b806395d89b41116100bd57806395d89b41146102e0578063a22cb465146102e8578063b88d4fde146102fb57600080fd5b806370a08231146102ba57806394985ddd146102cd57600080fd5b8063219c0eee1161013a57806342842e0e1161011457806342842e0e146102815780634372441a146102945780636352211e146102a757600080fd5b8063219c0eee1461021757806322881f881461024057806323b872dd1461026e57600080fd5b8063081812fc1161016b578063081812fc146101c4578063095ea7b3146101ef578063162094c41461020457600080fd5b806301ffc9a71461018757806306fdde03146101af575b600080fd5b61019a610195366004611b3f565b6103b2565b60405190151581526020015b60405180910390f35b6101b761044f565b6040516101a69190611bb4565b6101d76101d2366004611bc7565b6104e1565b6040516001600160a01b0390911681526020016101a6565b6102026101fd366004611bfc565b61057b565b005b610202610212366004611cd2565b6106cb565b6101d7610225366004611bc7565b600c602052600090815260409020546001600160a01b031681565b61026061024e366004611bc7565b600f6020526000908152604090205481565b6040519081526020016101a6565b61020261027c366004611d19565b610756565b61020261028f366004611d19565b6107dd565b6101b76102a2366004611bc7565b6107f8565b6101d76102b5366004611bc7565b610892565b6102606102c8366004611d55565b61091d565b6102026102db366004611d70565b6109b7565b6101b7610a39565b6102026102f6366004611da0565b610a48565b610202610309366004611dd7565b610a53565b6101b761031c366004611bc7565b610ae0565b61034461032f366004611bc7565b600e6020526000908152604090205460ff1681565b6040516101a69190611e8b565b610260600b5481565b610260600a5481565b61019a610371366004611e99565b6001600160a01b03918216600090815260066020908152604080832093909416825291909152205460ff1690565b6102606103ad366004611ecc565b610c73565b60006001600160e01b031982167f80ac58cd00000000000000000000000000000000000000000000000000000000148061041557506001600160e01b031982167f5b5e139f00000000000000000000000000000000000000000000000000000000145b8061044957507f01ffc9a7000000000000000000000000000000000000000000000000000000006001600160e01b03198316145b92915050565b60606001805461045e90611f01565b80601f016020809104026020016040519081016040528092919081815260200182805461048a90611f01565b80156104d75780601f106104ac576101008083540402835291602001916104d7565b820191906000526020600020905b8154815290600101906020018083116104ba57829003601f168201915b5050505050905090565b6000818152600360205260408120546001600160a01b031661055f5760405162461bcd60e51b815260206004820152602c60248201527f4552433732313a20617070726f76656420717565727920666f72206e6f6e657860448201526b34b9ba32b73a103a37b5b2b760a11b60648201526084015b60405180910390fd5b506000908152600560205260409020546001600160a01b031690565b600061058682610892565b9050806001600160a01b0316836001600160a01b031614156106105760405162461bcd60e51b815260206004820152602160248201527f4552433732313a20617070726f76616c20746f2063757272656e74206f776e6560448201527f72000000000000000000000000000000000000000000000000000000000000006064820152608401610556565b336001600160a01b038216148061064a57506001600160a01b038116600090815260066020908152604080832033845290915290205460ff165b6106bc5760405162461bcd60e51b815260206004820152603860248201527f4552433732313a20617070726f76652063616c6c6572206973206e6f74206f7760448201527f6e6572206e6f7220617070726f76656420666f7220616c6c00000000000000006064820152608401610556565b6106c68383610d00565b505050565b6106d6335b83610d7b565b6107485760405162461bcd60e51b815260206004820152603260248201527f4552433732313a207472616e736665722063616c6c6572206973206e6f74206f60448201527f776e6572206e6f7220617070726f7665642e00000000000000000000000000006064820152608401610556565b6107528282610e6e565b5050565b6107603382610d7b565b6107d25760405162461bcd60e51b815260206004820152603160248201527f4552433732313a207472616e736665722063616c6c6572206973206e6f74206f60448201527f776e6572206e6f7220617070726f7665640000000000000000000000000000006064820152608401610556565b6106c6838383610f17565b6106c683838360405180602001604052806000815250610a53565b600d602052600090815260409020805461081190611f01565b80601f016020809104026020016040519081016040528092919081815260200182805461083d90611f01565b801561088a5780601f1061085f5761010080835404028352916020019161088a565b820191906000526020600020905b81548152906001019060200180831161086d57829003601f168201915b505050505081565b6000818152600360205260408120546001600160a01b0316806104495760405162461bcd60e51b815260206004820152602960248201527f4552433732313a206f776e657220717565727920666f72206e6f6e657869737460448201527f656e7420746f6b656e00000000000000000000000000000000000000000000006064820152608401610556565b60006001600160a01b03821661099b5760405162461bcd60e51b815260206004820152602a60248201527f4552433732313a2062616c616e636520717565727920666f7220746865207a6560448201527f726f2061646472657373000000000000000000000000000000000000000000006064820152608401610556565b506001600160a01b031660009081526004602052604090205490565b336001600160a01b037f00000000000000000000000000000000000000000000000000000000000000001614610a2f5760405162461bcd60e51b815260206004820152601f60248201527f4f6e6c7920565246436f6f7264696e61746f722063616e2066756c66696c6c006044820152606401610556565b61075282826110f1565b60606002805461045e90611f01565b61075233838361128b565b610a5c336106d0565b610ace5760405162461bcd60e51b815260206004820152603160248201527f4552433732313a207472616e736665722063616c6c6572206973206e6f74206f60448201527f776e6572206e6f7220617070726f7665640000000000000000000000000000006064820152608401610556565b610ada8484848461135a565b50505050565b6000818152600360205260409020546060906001600160a01b0316610b6d5760405162461bcd60e51b815260206004820152603160248201527f45524337323155524953746f726167653a2055524920717565727920666f722060448201527f6e6f6e6578697374656e7420746f6b656e0000000000000000000000000000006064820152608401610556565b60008281526007602052604081208054610b8690611f01565b80601f0160208091040260200160405190810160405280929190818152602001828054610bb290611f01565b8015610bff5780601f10610bd457610100808354040283529160200191610bff565b820191906000526020600020905b815481529060010190602001808311610be257829003601f168201915b505050505090506000610c1d60408051602081019091526000815290565b9050805160001415610c30575092915050565b815115610c62578082604051602001610c4a929190611f3c565b60405160208183030381529060405292505050919050565b610c6b846113d8565b949350505050565b600080610c84600954600a546114ce565b6000818152600c60209081526040808320805473ffffffffffffffffffffffffffffffffffffffff191633179055600d82529091208551929350610ccc929091860190611a8d565b50604051819033907fe7449ee7bc91a97e38b1179b4c2fe513c3024f4daf863985bcfd5f8d7e6aa44a90600090a392915050565b6000818152600560205260409020805473ffffffffffffffffffffffffffffffffffffffff19166001600160a01b0384169081179091558190610d4282610892565b6001600160a01b03167f8c5be1e5ebec7d5bd14f71427d1e84f3dd0314c0f7b2291e5b200ac8c7c3b92560405160405180910390a45050565b6000818152600360205260408120546001600160a01b0316610df45760405162461bcd60e51b815260206004820152602c60248201527f4552433732313a206f70657261746f7220717565727920666f72206e6f6e657860448201526b34b9ba32b73a103a37b5b2b760a11b6064820152608401610556565b6000610dff83610892565b9050806001600160a01b0316846001600160a01b03161480610e3a5750836001600160a01b0316610e2f846104e1565b6001600160a01b0316145b80610c6b57506001600160a01b0380821660009081526006602090815260408083209388168352929052205460ff16610c6b565b6000828152600360205260409020546001600160a01b0316610ef85760405162461bcd60e51b815260206004820152602e60248201527f45524337323155524953746f726167653a2055524920736574206f66206e6f6e60448201527f6578697374656e7420746f6b656e0000000000000000000000000000000000006064820152608401610556565b600082815260076020908152604090912082516106c692840190611a8d565b826001600160a01b0316610f2a82610892565b6001600160a01b031614610fa65760405162461bcd60e51b815260206004820152602560248201527f4552433732313a207472616e736665722066726f6d20696e636f72726563742060448201527f6f776e65720000000000000000000000000000000000000000000000000000006064820152608401610556565b6001600160a01b0382166110215760405162461bcd60e51b8152602060048201526024808201527f4552433732313a207472616e7366657220746f20746865207a65726f2061646460448201527f72657373000000000000000000000000000000000000000000000000000000006064820152608401610556565b61102c600082610d00565b6001600160a01b0383166000908152600460205260408120805460019290611055908490611f81565b90915550506001600160a01b0382166000908152600460205260408120805460019290611083908490611f98565b9091555050600081815260036020526040808220805473ffffffffffffffffffffffffffffffffffffffff19166001600160a01b0386811691821790925591518493918716917fddf252ad1be2c89b69c2b068fc378daa952ba7f163c4a11628f55a4df523b3ef91a4505050565b6000828152600c6020908152604080832054600d909252822080546001600160a01b03909216929161112290611f01565b80601f016020809104026020016040519081016040528092919081815260200182805461114e90611f01565b801561119b5780601f106111705761010080835404028352916020019161119b565b820191906000526020600020905b81548152906001019060200180831161117e57829003601f168201915b505050505090506111be82600b5460405180602001604052806000815250611645565b6111ca600b5482610e6e565b60006111d7600385611fc6565b60028111156111e8576111e8611e53565b600b546000908152600e602052604090208054919250829160ff1916600183600281111561121857611218611e53565b0217905550600b546000868152600f6020526040908190208290555186917fffa037f03934796e24eef3536073dff3518b7dfbc66d8dc751836e2451265b2b9161126491908590611fda565b60405180910390a26001600b600082825461127f9190611f98565b90915550505050505050565b816001600160a01b0316836001600160a01b031614156112ed5760405162461bcd60e51b815260206004820152601960248201527f4552433732313a20617070726f766520746f2063616c6c6572000000000000006044820152606401610556565b6001600160a01b03838116600081815260066020908152604080832094871680845294825291829020805460ff191686151590811790915591519182527f17307eab39ab6107e8899845ad3d59bd9653f200f220920489ca2b5937696c31910160405180910390a3505050565b611365848484610f17565b611371848484846116c3565b610ada5760405162461bcd60e51b815260206004820152603260248201527f4552433732313a207472616e7366657220746f206e6f6e20455243373231526560448201527131b2b4bb32b91034b6b83632b6b2b73a32b960711b6064820152608401610556565b6000818152600360205260409020546060906001600160a01b03166114655760405162461bcd60e51b815260206004820152602f60248201527f4552433732314d657461646174613a2055524920717565727920666f72206e6f60448201527f6e6578697374656e7420746f6b656e00000000000000000000000000000000006064820152608401610556565b600061147c60408051602081019091526000815290565b9050600081511161149c57604051806020016040528060008152506114c7565b806114a68461180c565b6040516020016114b7929190611f3c565b6040516020818303038152906040525b9392505050565b60007f00000000000000000000000000000000000000000000000000000000000000006001600160a01b0316634000aea07f00000000000000000000000000000000000000000000000000000000000000008486600060405160200161153e929190918252602082015260400190565b6040516020818303038152906040526040518463ffffffff1660e01b815260040161156b93929190611fee565b6020604051808303816000875af115801561158a573d6000803e3d6000fd5b505050506040513d601f19601f820116820180604052508101906115ae919061201f565b5060008381526020818152604080832054815180840188905280830185905230606082015260808082018390528351808303909101815260a090910190925281519183019190912086845292909152611608906001611f98565b6000858152602081815260409182902092909255805180830187905280820184905281518082038301815260609091019091528051910120610c6b565b61164f838361193e565b61165c60008484846116c3565b6106c65760405162461bcd60e51b815260206004820152603260248201527f4552433732313a207472616e7366657220746f206e6f6e20455243373231526560448201527131b2b4bb32b91034b6b83632b6b2b73a32b960711b6064820152608401610556565b60006001600160a01b0384163b1561180157604051630a85bd0160e11b81526001600160a01b0385169063150b7a029061170790339089908890889060040161203c565b6020604051808303816000875af1925050508015611742575060408051601f3d908101601f1916820190925261173f91810190612078565b60015b6117e7573d808015611770576040519150601f19603f3d011682016040523d82523d6000602084013e611775565b606091505b5080516117df5760405162461bcd60e51b815260206004820152603260248201527f4552433732313a207472616e7366657220746f206e6f6e20455243373231526560448201527131b2b4bb32b91034b6b83632b6b2b73a32b960711b6064820152608401610556565b805181602001fd5b6001600160e01b031916630a85bd0160e11b149050610c6b565b506001949350505050565b60608161184c57505060408051808201909152600181527f3000000000000000000000000000000000000000000000000000000000000000602082015290565b8160005b8115611876578061186081612095565b915061186f9050600a836120b0565b9150611850565b60008167ffffffffffffffff81111561189157611891611c26565b6040519080825280601f01601f1916602001820160405280156118bb576020820181803683370190505b5090505b8415610c6b576118d0600183611f81565b91506118dd600a86611fc6565b6118e8906030611f98565b60f81b8183815181106118fd576118fd6120c4565b60200101907effffffffffffffffffffffffffffffffffffffffffffffffffffffffffffff1916908160001a905350611937600a866120b0565b94506118bf565b6001600160a01b0382166119945760405162461bcd60e51b815260206004820181905260248201527f4552433732313a206d696e7420746f20746865207a65726f20616464726573736044820152606401610556565b6000818152600360205260409020546001600160a01b0316156119f95760405162461bcd60e51b815260206004820152601c60248201527f4552433732313a20746f6b656e20616c7265616479206d696e746564000000006044820152606401610556565b6001600160a01b0382166000908152600460205260408120805460019290611a22908490611f98565b9091555050600081815260036020526040808220805473ffffffffffffffffffffffffffffffffffffffff19166001600160a01b03861690811790915590518392907fddf252ad1be2c89b69c2b068fc378daa952ba7f163c4a11628f55a4df523b3ef908290a45050565b828054611a9990611f01565b90600052602060002090601f016020900481019282611abb5760008555611b01565b82601f10611ad457805160ff1916838001178555611b01565b82800160010185558215611b01579182015b82811115611b01578251825591602001919060010190611ae6565b50611b0d929150611b11565b5090565b5b80821115611b0d5760008155600101611b12565b6001600160e01b031981168114611b3c57600080fd5b50565b600060208284031215611b5157600080fd5b81356114c781611b26565b60005b83811015611b77578181015183820152602001611b5f565b83811115610ada5750506000910152565b60008151808452611ba0816020860160208601611b5c565b601f01601f19169290920160200192915050565b6020815260006114c76020830184611b88565b600060208284031215611bd957600080fd5b5035919050565b80356001600160a01b0381168114611bf757600080fd5b919050565b60008060408385031215611c0f57600080fd5b611c1883611be0565b946020939093013593505050565b634e487b7160e01b600052604160045260246000fd5b600067ffffffffffffffff80841115611c5757611c57611c26565b604051601f8501601f19908116603f01168101908282118183101715611c7f57611c7f611c26565b81604052809350858152868686011115611c9857600080fd5b858560208301376000602087830101525050509392505050565b600082601f830112611cc357600080fd5b6114c783833560208501611c3c565b60008060408385031215611ce557600080fd5b82359150602083013567ffffffffffffffff811115611d0357600080fd5b611d0f85828601611cb2565b9150509250929050565b600080600060608486031215611d2e57600080fd5b611d3784611be0565b9250611d4560208501611be0565b9150604084013590509250925092565b600060208284031215611d6757600080fd5b6114c782611be0565b60008060408385031215611d8357600080fd5b50508035926020909101359150565b8015158114611b3c57600080fd5b60008060408385031215611db357600080fd5b611dbc83611be0565b91506020830135611dcc81611d92565b809150509250929050565b60008060008060808587031215611ded57600080fd5b611df685611be0565b9350611e0460208601611be0565b925060408501359150606085013567ffffffffffffffff811115611e2757600080fd5b8501601f81018713611e3857600080fd5b611e4787823560208401611c3c565b91505092959194509250565b634e487b7160e01b600052602160045260246000fd5b60038110611e8757634e487b7160e01b600052602160045260246000fd5b9052565b602081016104498284611e69565b60008060408385031215611eac57600080fd5b611eb583611be0565b9150611ec360208401611be0565b90509250929050565b600060208284031215611ede57600080fd5b813567ffffffffffffffff811115611ef557600080fd5b610c6b84828501611cb2565b600181811c90821680611f1557607f821691505b60208210811415611f3657634e487b7160e01b600052602260045260246000fd5b50919050565b60008351611f4e818460208801611b5c565b835190830190611f62818360208801611b5c565b01949350505050565b634e487b7160e01b600052601160045260246000fd5b600082821015611f9357611f93611f6b565b500390565b60008219821115611fab57611fab611f6b565b500190565b634e487b7160e01b600052601260045260246000fd5b600082611fd557611fd5611fb0565b500690565b828152604081016114c76020830184611e69565b6001600160a01b03841681528260208201526060604082015260006120166060830184611b88565b95945050505050565b60006020828403121561203157600080fd5b81516114c781611d92565b60006001600160a01b0380871683528086166020840152508360408301526080606083015261206e6080830184611b88565b9695505050505050565b60006020828403121561208a57600080fd5b81516114c781611b26565b60006000198214156120a9576120a9611f6b565b5060010190565b6000826120bf576120bf611fb0565b500490565b634e487b7160e01b600052603260045260246000fdfea2646970667358221220cdcd7284b1d6a3c447e84c9a7274d58c41354330b8777d08e8a189c50fe0730464736f6c634300080a0033",
  "linkReferences": {},
  "deployedLinkReferences": {}
}