{
  "_format": "hh-sol-artifact-1",
  "contractName": "AdvancedCollectible",
  "sourceName": "contracts/AdvancedCollectible.sol",
  "abi": [
    {
      "inputs": [
        {
          "internalType": "address",
          "name": "_VRFCoordinator",
          "type": "address"
        },
        {
          "internalType": "address",
          "name": "_LinkToken",
          "type": "address"
        },
        {
          "internalType": "bytes32",
          "name": "_keyhash",
          "type": "bytes32"
        },
        {
          "internalType": "uint256",
          "name": "_fee",
          "type": "uint256"
        }
      ],
      "stateMutability": "nonpayable",
      "type": "constructor"
    },
    {
      "anonymous": false,
      "inputs": [
        {
          "indexed": true,
          "internalType": "address",
          "name": "owner",
          "type": "address"
        },
        {
          "indexed": true,
          "internalType": "address",
          "name": "approved",
          "type": "address"
        },
        {
          "indexed": true,
          "internalType": "uint256",
          "name": "tokenId",
          "type": "uint256"
        }
      ],
      "name": "Approval",
      "type": "event"
    },
    {
      "anonymous": false,
      "inputs": [
        {
          "indexed": true,
          "internalType": "address",
          "name": "owner",
          "type": "address"
        },
        {
          "indexed": true,
          "internalType": "address",
          "name": "operator",
          "type": "address"
        },
        {
          "indexed": false,
          "internalType": "bool",
          "name": "approved",
          "type": "bool"
        }
      ],
      "name": "ApprovalForAll",
      "type": "event"
    },
    {
      "anonymous": false,
      "inputs": [
        {
          "indexed": true,
          "internalType": "address",
          "name": "from",
          "type": "address"
        },
        {
          "indexed": true,
          "internalType": "address",
          "name": "to",
          "type": "address"
        },
        {
          "indexed": true,
          "internalType": "uint256",
          "name": "tokenId",
          "type": "uint256"
        }
      ],
      "name": "Transfer",
      "type": "event"
    },
    {
      "anonymous": false,
      "inputs": [
        {
          "indexed": true,
          "internalType": "bytes32",
          "name": "requestId",
          "type": "bytes32"
        }
      ],
      "name": "requestedCollectible",
      "type": "event"
    },
    {
      "inputs": [
        {
          "internalType": "string",
          "name": "tokenURI",
          "type": "string"
        }
      ],
      "name": "CreateDoggies",
      "outputs": [
        {
          "internalType": "bytes32",
          "name": "",
          "type": "bytes32"
        }
      ],
      "stateMutability": "nonpayable",
      "type": "function"
    },
    {
      "inputs": [
        {
          "internalType": "address",
          "name": "to",
          "type": "address"
        },
        {
          "internalType": "uint256",
          "name": "tokenId",
          "type": "uint256"
        }
      ],
      "name": "approve",
      "outputs": [],
      "stateMutability": "nonpayable",
      "type": "function"
    },
    {
      "inputs": [
        {
          "internalType": "address",
          "name": "owner",
          "type": "address"
        }
      ],
      "name": "balanceOf",
      "outputs": [
        {
          "internalType": "uint256",
          "name": "",
          "type": "uint256"
        }
      ],
      "stateMutability": "view",
      "type": "function"
    },
    {
      "inputs": [],
      "name": "fee",
      "outputs": [
        {
          "internalType": "uint256",
          "name": "",
          "type": "uint256"
        }
      ],
      "stateMutability": "view",
      "type": "function"
    },
    {
      "inputs": [
        {
          "internalType": "uint256",
          "name": "tokenId",
          "type": "uint256"
        }
      ],
      "name": "getApproved",
      "outputs": [
        {
          "internalType": "address",
          "name": "",
          "type": "address"
        }
      ],
      "stateMutability": "view",
      "type": "function"
    },
    {
      "inputs": [
        {
          "internalType": "address",
          "name": "owner",
          "type": "address"
        },
        {
          "internalType": "address",
          "name": "operator",
          "type": "address"
        }
      ],
      "name": "isApprovedForAll",
      "outputs": [
        {
          "internalType": "bool",
          "name": "",
          "type": "bool"
        }
      ],
      "stateMutability": "view",
      "type": "function"
    },
    {
      "inputs": [],
      "name": "name",
      "outputs": [
        {
          "internalType": "string",
          "name": "",
          "type": "string"
        }
      ],
      "stateMutability": "view",
      "type": "function"
    },
    {
      "inputs": [
        {
          "internalType": "uint256",
          "name": "tokenId",
          "type": "uint256"
        }
      ],
      "name": "ownerOf",
      "outputs": [
        {
          "internalType": "address",
          "name": "",
          "type": "address"
        }
      ],
      "stateMutability": "view",
      "type": "function"
    },
    {
      "inputs": [
        {
          "internalType": "bytes32",
          "name": "requestId",
          "type": "bytes32"
        },
        {
          "internalType": "uint256",
          "name": "randomness",
          "type": "uint256"
        }
      ],
      "name": "rawFulfillRandomness",
      "outputs": [],
      "stateMutability": "nonpayable",
      "type": "function"
    },
    {
      "inputs": [
        {
          "internalType": "bytes32",
          "name": "",
          "type": "bytes32"
        }
      ],
      "name": "requestIdToSender",
      "outputs": [
        {
          "internalType": "address",
          "name": "",
          "type": "address"
        }
      ],
      "stateMutability": "view",
      "type": "function"
    },
    {
      "inputs": [
        {
          "internalType": "bytes32",
          "name": "",
          "type": "bytes32"
        }
      ],
      "name": "requestIdToTokenId",
      "outputs": [
        {
          "internalType": "uint256",
          "name": "",
          "type": "uint256"
        }
      ],
      "stateMutability": "view",
      "type": "function"
    },
    {
      "inputs": [
        {
          "internalType": "bytes32",
          "name": "",
          "type": "bytes32"
        }
      ],
      "name": "requestIdToTokenURI",
      "outputs": [
        {
          "internalType": "string",
          "name": "",
          "type": "string"
        }
      ],
      "stateMutability": "view",
      "type": "function"
    },
    {
      "inputs": [
        {
          "internalType": "address",
          "name": "from",
          "type": "address"
        },
        {
          "internalType": "address",
          "name": "to",
          "type": "address"
        },
        {
          "internalType": "uint256",
          "name": "tokenId",
          "type": "uint256"
        }
      ],
      "name": "safeTransferFrom",
      "outputs": [],
      "stateMutability": "nonpayable",
      "type": "function"
    },
    {
      "inputs": [
        {
          "internalType": "address",
          "name": "from",
          "type": "address"
        },
        {
          "internalType": "address",
          "name": "to",
          "type": "address"
        },
        {
          "internalType": "uint256",
          "name": "tokenId",
          "type": "uint256"
        },
        {
          "internalType": "bytes",
          "name": "_data",
          "type": "bytes"
        }
      ],
      "name": "safeTransferFrom",
      "outputs": [],
      "stateMutability": "nonpayable",
      "type": "function"
    },
    {
      "inputs": [
        {
          "internalType": "address",
          "name": "operator",
          "type": "address"
        },
        {
          "internalType": "bool",
          "name": "approved",
          "type": "bool"
        }
      ],
      "name": "setApprovalForAll",
      "outputs": [],
      "stateMutability": "nonpayable",
      "type": "function"
    },
    {
      "inputs": [
        {
          "internalType": "uint256",
          "name": "tokenId_",
          "type": "uint256"
        },
        {
          "internalType": "string",
          "name": "tokenURI_",
          "type": "string"
        }
      ],
      "name": "setTokenURI",
      "outputs": [],
      "stateMutability": "nonpayable",
      "type": "function"
    },
    {
      "inputs": [
        {
          "internalType": "bytes4",
          "name": "interfaceId",
          "type": "bytes4"
        }
      ],
      "name": "supportsInterface",
      "outputs": [
        {
          "internalType": "bool",
          "name": "",
          "type": "bool"
        }
      ],
      "stateMutability": "view",
      "type": "function"
    },
    {
      "inputs": [],
      "name": "symbol",
      "outputs": [
        {
          "internalType": "string",
          "name": "",
          "type": "string"
        }
      ],
      "stateMutability": "view",
      "type": "function"
    },
    {
      "inputs": [],
      "name": "tokenCounter",
      "outputs": [
        {
          "internalType": "uint256",
          "name": "",
          "type": "uint256"
        }
      ],
      "stateMutability": "view",
      "type": "function"
    },
    {
      "inputs": [
        {
          "internalType": "uint256",
          "name": "",
          "type": "uint256"
        }
      ],
      "name": "tokenIdToBreed",
      "outputs": [
        {
          "internalType": "enum AdvancedCollectible.Breed",
          "name": "",
          "type": "uint8"
        }
      ],
      "stateMutability": "view",
      "type": "function"
    },
    {
      "inputs": [
        {
          "internalType": "uint256",
          "name": "tokenId",
          "type": "uint256"
        }
      ],
      "name": "tokenURI",
      "outputs": [
        {
          "internalType": "string",
          "name": "",
          "type": "string"
        }
      ],
      "stateMutability": "view",
      "type": "function"
    },
    {
      "inputs": [
        {
          "internalType": "address",
          "name": "from",
          "type": "address"
        },
        {
          "internalType": "address",
          "name": "to",
          "type": "address"
        },
        {
          "internalType": "uint256",
          "name": "tokenId",
          "type": "uint256"
        }
      ],
      "name": "transferFrom",
      "outputs": [],
      "stateMutability": "nonpayable",
      "type": "function"
    }
  ],
  "bytecode": "0x60c06040523480156200001157600080fd5b50604051620022c7380380620022c783398101604081905262000034916200017f565b6040805180820182526007815266446f676769657360c81b602080830191825283518085019094526003845262444f4760e81b908401526001600160a01b0380881660a052861660805281519192916200009191600191620000bc565b508051620000a7906002906020840190620000bc565b505050600991909155600a5550620002049050565b828054620000ca90620001c7565b90600052602060002090601f016020900481019282620000ee576000855562000139565b82601f106200010957805160ff191683800117855562000139565b8280016001018555821562000139579182015b82811115620001395782518255916020019190600101906200011c565b50620001479291506200014b565b5090565b5b808211156200014757600081556001016200014c565b80516001600160a01b03811681146200017a57600080fd5b919050565b600080600080608085870312156200019657600080fd5b620001a18562000162565b9350620001b16020860162000162565b6040860151606090960151949790965092505050565b600181811c90821680620001dc57607f821691505b60208210811415620001fe57634e487b7160e01b600052602260045260246000fd5b50919050565b60805160a05161209662000231600039600081816109a401526114a30152600061147401526120966000f3fe608060405234801561001057600080fd5b50600436106101825760003560e01c806370a08231116100d8578063c87b56dd1161008c578063ddca3f4311610066578063ddca3f431461035a578063e985e9c514610363578063ed4046ac1461039f57600080fd5b8063c87b56dd1461030e578063cbbc3c2814610321578063d082e3811461035157600080fd5b806395d89b41116100bd57806395d89b41146102e0578063a22cb465146102e8578063b88d4fde146102fb57600080fd5b806370a08231146102ba57806394985ddd146102cd57600080fd5b8063219c0eee1161013a57806342842e0e1161011457806342842e0e146102815780634372441a146102945780636352211e146102a757600080fd5b8063219c0eee1461021757806322881f881461024057806323b872dd1461026e57600080fd5b8063081812fc1161016b578063081812fc146101c4578063095ea7b3146101ef578063162094c41461020457600080fd5b806301ffc9a71461018757806306fdde03146101af575b600080fd5b61019a610195366004611ae1565b6103b2565b60405190151581526020015b60405180910390f35b6101b761044f565b6040516101a69190611b56565b6101d76101d2366004611b69565b6104e1565b6040516001600160a01b0390911681526020016101a6565b6102026101fd366004611b9e565b61057b565b005b610202610212366004611c74565b6106ad565b6101d7610225366004611b69565b600c602052600090815260409020546001600160a01b031681565b61026061024e366004611b69565b600f6020526000908152604090205481565b6040519081526020016101a6565b61020261027c366004611cbb565b610738565b61020261028f366004611cbb565b6107bf565b6101b76102a2366004611b69565b6107da565b6101d76102b5366004611b69565b610874565b6102606102c8366004611cf7565b6108ff565b6102026102db366004611d12565b610999565b6101b7610a1b565b6102026102f6366004611d42565b610a2a565b610202610309366004611d79565b610a35565b6101b761031c366004611b69565b610ac2565b61034461032f366004611b69565b600e6020526000908152604090205460ff1681565b6040516101a69190611e0b565b610260600b5481565b610260600a5481565b61019a610371366004611e33565b6001600160a01b03918216600090815260066020908152604080832093909416825291909152205460ff1690565b6102606103ad366004611e66565b610c55565b60006001600160e01b031982167f80ac58cd00000000000000000000000000000000000000000000000000000000148061041557506001600160e01b031982167f5b5e139f00000000000000000000000000000000000000000000000000000000145b8061044957507f01ffc9a7000000000000000000000000000000000000000000000000000000006001600160e01b03198316145b92915050565b60606001805461045e90611e9b565b80601f016020809104026020016040519081016040528092919081815260200182805461048a90611e9b565b80156104d75780601f106104ac576101008083540402835291602001916104d7565b820191906000526020600020905b8154815290600101906020018083116104ba57829003601f168201915b5050505050905090565b6000818152600360205260408120546001600160a01b031661055f5760405162461bcd60e51b815260206004820152602c60248201527f4552433732313a20617070726f76656420717565727920666f72206e6f6e657860448201526b34b9ba32b73a103a37b5b2b760a11b60648201526084015b60405180910390fd5b506000908152600560205260409020546001600160a01b031690565b600061058682610874565b9050806001600160a01b0316836001600160a01b031614156106105760405162461bcd60e51b815260206004820152602160248201527f4552433732313a20617070726f76616c20746f2063757272656e74206f776e6560448201527f72000000000000000000000000000000000000000000000000000000000000006064820152608401610556565b336001600160a01b038216148061062c575061062c8133610371565b61069e5760405162461bcd60e51b815260206004820152603860248201527f4552433732313a20617070726f76652063616c6c6572206973206e6f74206f7760448201527f6e6572206e6f7220617070726f76656420666f7220616c6c00000000000000006064820152608401610556565b6106a88383610ce0565b505050565b6106b8335b83610d5b565b61072a5760405162461bcd60e51b815260206004820152603260248201527f4552433732313a207472616e736665722063616c6c6572206973206e6f74206f60448201527f776e6572206e6f7220617070726f7665642e00000000000000000000000000006064820152608401610556565b6107348282610e4e565b5050565b6107423382610d5b565b6107b45760405162461bcd60e51b815260206004820152603160248201527f4552433732313a207472616e736665722063616c6c6572206973206e6f74206f60448201527f776e6572206e6f7220617070726f7665640000000000000000000000000000006064820152608401610556565b6106a8838383610ef7565b6106a883838360405180602001604052806000815250610a35565b600d60205260009081526040902080546107f390611e9b565b80601f016020809104026020016040519081016040528092919081815260200182805461081f90611e9b565b801561086c5780601f106108415761010080835404028352916020019161086c565b820191906000526020600020905b81548152906001019060200180831161084f57829003601f168201915b505050505081565b6000818152600360205260408120546001600160a01b0316806104495760405162461bcd60e51b815260206004820152602960248201527f4552433732313a206f776e657220717565727920666f72206e6f6e657869737460448201527f656e7420746f6b656e00000000000000000000000000000000000000000000006064820152608401610556565b60006001600160a01b03821661097d5760405162461bcd60e51b815260206004820152602a60248201527f4552433732313a2062616c616e636520717565727920666f7220746865207a6560448201527f726f2061646472657373000000000000000000000000000000000000000000006064820152608401610556565b506001600160a01b031660009081526004602052604090205490565b336001600160a01b037f00000000000000000000000000000000000000000000000000000000000000001614610a115760405162461bcd60e51b815260206004820152601f60248201527f4f6e6c7920565246436f6f7264696e61746f722063616e2066756c66696c6c006044820152606401610556565b61073482826110d1565b60606002805461045e90611e9b565b61073433838361122d565b610a3e336106b2565b610ab05760405162461bcd60e51b815260206004820152603160248201527f4552433732313a207472616e736665722063616c6c6572206973206e6f74206f60448201527f776e6572206e6f7220617070726f7665640000000000000000000000000000006064820152608401610556565b610abc848484846112fc565b50505050565b6000818152600360205260409020546060906001600160a01b0316610b4f5760405162461bcd60e51b815260206004820152603160248201527f45524337323155524953746f726167653a2055524920717565727920666f722060448201527f6e6f6e6578697374656e7420746f6b656e0000000000000000000000000000006064820152608401610556565b60008281526007602052604081208054610b6890611e9b565b80601f0160208091040260200160405190810160405280929190818152602001828054610b9490611e9b565b8015610be15780601f10610bb657610100808354040283529160200191610be1565b820191906000526020600020905b815481529060010190602001808311610bc457829003601f168201915b505050505090506000610bff60408051602081019091526000815290565b9050805160001415610c12575092915050565b815115610c44578082604051602001610c2c929190611ed6565b60405160208183030381529060405292505050919050565b610c4d8461137a565b949350505050565b600080610c66600954600a54611470565b6000818152600c60209081526040808320805473ffffffffffffffffffffffffffffffffffffffff191633179055600d82529091208551929350610cae929091860190611a2f565b5060405181907f1407d655ff3c024a96c54a8c62eb99076b252e94f2e0cdc30bcf86248a5f1b0390600090a292915050565b6000818152600560205260409020805473ffffffffffffffffffffffffffffffffffffffff19166001600160a01b0384169081179091558190610d2282610874565b6001600160a01b03167f8c5be1e5ebec7d5bd14f71427d1e84f3dd0314c0f7b2291e5b200ac8c7c3b92560405160405180910390a45050565b6000818152600360205260408120546001600160a01b0316610dd45760405162461bcd60e51b815260206004820152602c60248201527f4552433732313a206f70657261746f7220717565727920666f72206e6f6e657860448201526b34b9ba32b73a103a37b5b2b760a11b6064820152608401610556565b6000610ddf83610874565b9050806001600160a01b0316846001600160a01b03161480610e1a5750836001600160a01b0316610e0f846104e1565b6001600160a01b0316145b80610c4d57506001600160a01b0380821660009081526006602090815260408083209388168352929052205460ff16610c4d565b6000828152600360205260409020546001600160a01b0316610ed85760405162461bcd60e51b815260206004820152602e60248201527f45524337323155524953746f726167653a2055524920736574206f66206e6f6e60448201527f6578697374656e7420746f6b656e0000000000000000000000000000000000006064820152608401610556565b600082815260076020908152604090912082516106a892840190611a2f565b826001600160a01b0316610f0a82610874565b6001600160a01b031614610f865760405162461bcd60e51b815260206004820152602560248201527f4552433732313a207472616e736665722066726f6d20696e636f72726563742060448201527f6f776e65720000000000000000000000000000000000000000000000000000006064820152608401610556565b6001600160a01b0382166110015760405162461bcd60e51b8152602060048201526024808201527f4552433732313a207472616e7366657220746f20746865207a65726f2061646460448201527f72657373000000000000000000000000000000000000000000000000000000006064820152608401610556565b61100c600082610ce0565b6001600160a01b0383166000908152600460205260408120805460019290611035908490611f1b565b90915550506001600160a01b0382166000908152600460205260408120805460019290611063908490611f32565b9091555050600081815260036020526040808220805473ffffffffffffffffffffffffffffffffffffffff19166001600160a01b0386811691821790925591518493918716917fddf252ad1be2c89b69c2b068fc378daa952ba7f163c4a11628f55a4df523b3ef91a4505050565b6000828152600c6020908152604080832054600d909252822080546001600160a01b03909216929161110290611e9b565b80601f016020809104026020016040519081016040528092919081815260200182805461112e90611e9b565b801561117b5780601f106111505761010080835404028352916020019161117b565b820191906000526020600020905b81548152906001019060200180831161115e57829003601f168201915b5050505050905061119e82600b54604051806020016040528060008152506115e7565b6111aa600b5482610e4e565b60006111b7600385611f60565b60028111156111c8576111c8611df5565b600b546000908152600e602052604090208054919250829160ff191660018360028111156111f8576111f8611df5565b0217905550600b80546000878152600f6020526040812082905560019291611221908490611f32565b90915550505050505050565b816001600160a01b0316836001600160a01b0316141561128f5760405162461bcd60e51b815260206004820152601960248201527f4552433732313a20617070726f766520746f2063616c6c6572000000000000006044820152606401610556565b6001600160a01b03838116600081815260066020908152604080832094871680845294825291829020805460ff191686151590811790915591519182527f17307eab39ab6107e8899845ad3d59bd9653f200f220920489ca2b5937696c31910160405180910390a3505050565b611307848484610ef7565b61131384848484611665565b610abc5760405162461bcd60e51b815260206004820152603260248201527f4552433732313a207472616e7366657220746f206e6f6e20455243373231526560448201527131b2b4bb32b91034b6b83632b6b2b73a32b960711b6064820152608401610556565b6000818152600360205260409020546060906001600160a01b03166114075760405162461bcd60e51b815260206004820152602f60248201527f4552433732314d657461646174613a2055524920717565727920666f72206e6f60448201527f6e6578697374656e7420746f6b656e00000000000000000000000000000000006064820152608401610556565b600061141e60408051602081019091526000815290565b9050600081511161143e5760405180602001604052806000815250611469565b80611448846117ae565b604051602001611459929190611ed6565b6040516020818303038152906040525b9392505050565b60007f00000000000000000000000000000000000000000000000000000000000000006001600160a01b0316634000aea07f0000000000000000000000000000000000000000000000000000000000000000848660006040516020016114e0929190918252602082015260400190565b6040516020818303038152906040526040518463ffffffff1660e01b815260040161150d93929190611f74565b6020604051808303816000875af115801561152c573d6000803e3d6000fd5b505050506040513d601f19601f820116820180604052508101906115509190611fa5565b5060008381526020818152604080832054815180840188905280830185905230606082015260808082018390528351808303909101815260a0909101909252815191830191909120868452929091526115aa906001611f32565b6000858152602081815260409182902092909255805180830187905280820184905281518082038301815260609091019091528051910120610c4d565b6115f183836118e0565b6115fe6000848484611665565b6106a85760405162461bcd60e51b815260206004820152603260248201527f4552433732313a207472616e7366657220746f206e6f6e20455243373231526560448201527131b2b4bb32b91034b6b83632b6b2b73a32b960711b6064820152608401610556565b60006001600160a01b0384163b156117a357604051630a85bd0160e11b81526001600160a01b0385169063150b7a02906116a9903390899088908890600401611fc2565b6020604051808303816000875af19250505080156116e4575060408051601f3d908101601f191682019092526116e191810190611ffe565b60015b611789573d808015611712576040519150601f19603f3d011682016040523d82523d6000602084013e611717565b606091505b5080516117815760405162461bcd60e51b815260206004820152603260248201527f4552433732313a207472616e7366657220746f206e6f6e20455243373231526560448201527131b2b4bb32b91034b6b83632b6b2b73a32b960711b6064820152608401610556565b805181602001fd5b6001600160e01b031916630a85bd0160e11b149050610c4d565b506001949350505050565b6060816117ee57505060408051808201909152600181527f3000000000000000000000000000000000000000000000000000000000000000602082015290565b8160005b811561181857806118028161201b565b91506118119050600a83612036565b91506117f2565b60008167ffffffffffffffff81111561183357611833611bc8565b6040519080825280601f01601f19166020018201604052801561185d576020820181803683370190505b5090505b8415610c4d57611872600183611f1b565b915061187f600a86611f60565b61188a906030611f32565b60f81b81838151811061189f5761189f61204a565b60200101907effffffffffffffffffffffffffffffffffffffffffffffffffffffffffffff1916908160001a9053506118d9600a86612036565b9450611861565b6001600160a01b0382166119365760405162461bcd60e51b815260206004820181905260248201527f4552433732313a206d696e7420746f20746865207a65726f20616464726573736044820152606401610556565b6000818152600360205260409020546001600160a01b03161561199b5760405162461bcd60e51b815260206004820152601c60248201527f4552433732313a20746f6b656e20616c7265616479206d696e746564000000006044820152606401610556565b6001600160a01b03821660009081526004602052604081208054600192906119c4908490611f32565b9091555050600081815260036020526040808220805473ffffffffffffffffffffffffffffffffffffffff19166001600160a01b03861690811790915590518392907fddf252ad1be2c89b69c2b068fc378daa952ba7f163c4a11628f55a4df523b3ef908290a45050565b828054611a3b90611e9b565b90600052602060002090601f016020900481019282611a5d5760008555611aa3565b82601f10611a7657805160ff1916838001178555611aa3565b82800160010185558215611aa3579182015b82811115611aa3578251825591602001919060010190611a88565b50611aaf929150611ab3565b5090565b5b80821115611aaf5760008155600101611ab4565b6001600160e01b031981168114611ade57600080fd5b50565b600060208284031215611af357600080fd5b813561146981611ac8565b60005b83811015611b19578181015183820152602001611b01565b83811115610abc5750506000910152565b60008151808452611b42816020860160208601611afe565b601f01601f19169290920160200192915050565b6020815260006114696020830184611b2a565b600060208284031215611b7b57600080fd5b5035919050565b80356001600160a01b0381168114611b9957600080fd5b919050565b60008060408385031215611bb157600080fd5b611bba83611b82565b946020939093013593505050565b634e487b7160e01b600052604160045260246000fd5b600067ffffffffffffffff80841115611bf957611bf9611bc8565b604051601f8501601f19908116603f01168101908282118183101715611c2157611c21611bc8565b81604052809350858152868686011115611c3a57600080fd5b858560208301376000602087830101525050509392505050565b600082601f830112611c6557600080fd5b61146983833560208501611bde565b60008060408385031215611c8757600080fd5b82359150602083013567ffffffffffffffff811115611ca557600080fd5b611cb185828601611c54565b9150509250929050565b600080600060608486031215611cd057600080fd5b611cd984611b82565b9250611ce760208501611b82565b9150604084013590509250925092565b600060208284031215611d0957600080fd5b61146982611b82565b60008060408385031215611d2557600080fd5b50508035926020909101359150565b8015158114611ade57600080fd5b60008060408385031215611d5557600080fd5b611d5e83611b82565b91506020830135611d6e81611d34565b809150509250929050565b60008060008060808587031215611d8f57600080fd5b611d9885611b82565b9350611da660208601611b82565b925060408501359150606085013567ffffffffffffffff811115611dc957600080fd5b8501601f81018713611dda57600080fd5b611de987823560208401611bde565b91505092959194509250565b634e487b7160e01b600052602160045260246000fd5b6020810160038310611e2d57634e487b7160e01b600052602160045260246000fd5b91905290565b60008060408385031215611e4657600080fd5b611e4f83611b82565b9150611e5d60208401611b82565b90509250929050565b600060208284031215611e7857600080fd5b813567ffffffffffffffff811115611e8f57600080fd5b610c4d84828501611c54565b600181811c90821680611eaf57607f821691505b60208210811415611ed057634e487b7160e01b600052602260045260246000fd5b50919050565b60008351611ee8818460208801611afe565b835190830190611efc818360208801611afe565b01949350505050565b634e487b7160e01b600052601160045260246000fd5b600082821015611f2d57611f2d611f05565b500390565b60008219821115611f4557611f45611f05565b500190565b634e487b7160e01b600052601260045260246000fd5b600082611f6f57611f6f611f4a565b500690565b6001600160a01b0384168152826020820152606060408201526000611f9c6060830184611b2a565b95945050505050565b600060208284031215611fb757600080fd5b815161146981611d34565b60006001600160a01b03808716835280861660208401525083604083015260806060830152611ff46080830184611b2a565b9695505050505050565b60006020828403121561201057600080fd5b815161146981611ac8565b600060001982141561202f5761202f611f05565b5060010190565b60008261204557612045611f4a565b500490565b634e487b7160e01b600052603260045260246000fdfea2646970667358221220a7184924d0d8d366c37dc5b04bd92d77744bf7174ab614f540073d5904de81ab64736f6c634300080a0033",
  "linkReferences": {},
  "deployedLinkReferences": {}
}